{
  "contractName": "BridgeBase",
  "abi": [
    {
      "inputs": [
        {
          "internalType": "address",
          "name": "_token",
          "type": "address"
        }
      ],
      "stateMutability": "nonpayable",
      "type": "constructor"
    },
    {
      "anonymous": false,
      "inputs": [
        {
          "indexed": false,
          "internalType": "address",
          "name": "from",
          "type": "address"
        },
        {
          "indexed": false,
          "internalType": "address",
          "name": "to",
          "type": "address"
        },
        {
          "indexed": false,
          "internalType": "uint256",
          "name": "amount",
          "type": "uint256"
        },
        {
          "indexed": false,
          "internalType": "uint256",
          "name": "date",
          "type": "uint256"
        },
        {
          "indexed": false,
          "internalType": "uint256",
          "name": "nonce",
          "type": "uint256"
        },
        {
          "indexed": false,
          "internalType": "bytes",
          "name": "signature",
          "type": "bytes"
        },
        {
          "indexed": true,
          "internalType": "enum BridgeBase.Step",
          "name": "step",
          "type": "uint8"
        }
      ],
      "name": "Transfer",
      "type": "event"
    },
    {
      "inputs": [],
      "name": "admin",
      "outputs": [
        {
          "internalType": "address",
          "name": "",
          "type": "address"
        }
      ],
      "stateMutability": "view",
      "type": "function"
    },
    {
      "inputs": [
        {
          "internalType": "address",
          "name": "",
          "type": "address"
        },
        {
          "internalType": "uint256",
          "name": "",
          "type": "uint256"
        }
      ],
      "name": "processedNonces",
      "outputs": [
        {
          "internalType": "bool",
          "name": "",
          "type": "bool"
        }
      ],
      "stateMutability": "view",
      "type": "function"
    },
    {
      "inputs": [],
      "name": "token",
      "outputs": [
        {
          "internalType": "contract IToken",
          "name": "",
          "type": "address"
        }
      ],
      "stateMutability": "view",
      "type": "function"
    },
    {
      "inputs": [],
      "name": "getFees",
      "outputs": [
        {
          "internalType": "uint256",
          "name": "",
          "type": "uint256"
        }
      ],
      "stateMutability": "view",
      "type": "function"
    },
    {
      "inputs": [
        {
          "internalType": "address",
          "name": "to",
          "type": "address"
        },
        {
          "internalType": "uint256",
          "name": "amount",
          "type": "uint256"
        },
        {
          "internalType": "uint256",
          "name": "nonce",
          "type": "uint256"
        },
        {
          "internalType": "bytes",
          "name": "signature",
          "type": "bytes"
        }
      ],
      "name": "burn",
      "outputs": [],
      "stateMutability": "nonpayable",
      "type": "function"
    },
    {
      "inputs": [
        {
          "internalType": "address",
          "name": "from",
          "type": "address"
        },
        {
          "internalType": "address",
          "name": "to",
          "type": "address"
        },
        {
          "internalType": "uint256",
          "name": "amount",
          "type": "uint256"
        },
        {
          "internalType": "uint256",
          "name": "nonce",
          "type": "uint256"
        },
        {
          "internalType": "bytes",
          "name": "signature",
          "type": "bytes"
        }
      ],
      "name": "mint",
      "outputs": [],
      "stateMutability": "nonpayable",
      "type": "function"
    }
  ],
  "bytecode": "0x608060405234801561001057600080fd5b50604051611130380380611130833981810160405281019061003291906100d6565b336000806101000a81548173ffffffffffffffffffffffffffffffffffffffff021916908373ffffffffffffffffffffffffffffffffffffffff16021790555080600160006101000a81548173ffffffffffffffffffffffffffffffffffffffff021916908373ffffffffffffffffffffffffffffffffffffffff160217905550600160028190555050610148565b6000815190506100d081610131565b92915050565b6000602082840312156100e857600080fd5b60006100f6848285016100c1565b91505092915050565b600061010a82610111565b9050919050565b600073ffffffffffffffffffffffffffffffffffffffff82169050919050565b61013a816100ff565b811461014557600080fd5b50565b610fd9806101576000396000f3fe608060405234801561001057600080fd5b50600436106100625760003560e01c806352555702146100675780637cc70240146100835780638a94b05f146100b3578063db8d55f1146100cf578063f851a440146100ed578063fc0c546a1461010b575b600080fd5b610081600480360381019061007c9190610823565b610129565b005b61009d600480360381019061009891906108b5565b61049e565b6040516100aa9190610ce5565b60405180910390f35b6100cd60048036038101906100c891906108f1565b6104cd565b005b6100d761065e565b6040516100e49190610dc0565b60405180910390f35b6100f5610668565b6040516101029190610c00565b60405180910390f35b61011361068c565b6040516101209190610d45565b60405180910390f35b6000610160878787876040516020016101459493929190610b8c565b604051602081830303815290604052805190602001206106b2565b90503373ffffffffffffffffffffffffffffffffffffffff1660008054906101000a900473ffffffffffffffffffffffffffffffffffffffff1673ffffffffffffffffffffffffffffffffffffffff16146101f0576040517f08c379a00000000000000000000000000000000000000000000000000000000081526004016101e790610d80565b60405180910390fd5b8673ffffffffffffffffffffffffffffffffffffffff166102558285858080601f016020809104026020016040519081016040528093929190818152602001838380828437600081840152601f19601f820116905080830192505050505050506106e2565b73ffffffffffffffffffffffffffffffffffffffff16146102ab576040517f08c379a00000000000000000000000000000000000000000000000000000000081526004016102a290610da0565b60405180910390fd5b6000600160009054906101000a900473ffffffffffffffffffffffffffffffffffffffff1673ffffffffffffffffffffffffffffffffffffffff166370a08231306040518263ffffffff1660e01b81526004016103089190610c00565b60206040518083038186803b15801561032057600080fd5b505afa158015610334573d6000803e3d6000fd5b505050506040513d601f19601f820116820180604052508101906103589190610971565b905085811161039c576040517f08c379a000000000000000000000000000000000000000000000000000000000815260040161039390610d60565b60405180910390fd5b6001600360008a73ffffffffffffffffffffffffffffffffffffffff1673ffffffffffffffffffffffffffffffffffffffff168152602001908152602001600020600087815260200190815260200160002060006101000a81548160ff021916908315150217905550600160009054906101000a900473ffffffffffffffffffffffffffffffffffffffff1673ffffffffffffffffffffffffffffffffffffffff1663a9059cbb88886040518363ffffffff1660e01b8152600401610462929190610cbc565b600060405180830381600087803b15801561047c57600080fd5b505af1158015610490573d6000803e3d6000fd5b505050505050505050505050565b60036020528160005260406000206020528060005260406000206000915091509054906101000a900460ff1681565b6001600360003373ffffffffffffffffffffffffffffffffffffffff1673ffffffffffffffffffffffffffffffffffffffff168152602001908152602001600020600085815260200190815260200160002060006101000a81548160ff0219169083151502179055506000600254856105469190610e08565b9050600160009054906101000a900473ffffffffffffffffffffffffffffffffffffffff1673ffffffffffffffffffffffffffffffffffffffff166323b872dd8730846040518463ffffffff1660e01b81526004016105a793929190610c1b565b600060405180830381600087803b1580156105c157600080fd5b505af11580156105d5573d6000803e3d6000fd5b5050505060006001811115610613577f4e487b7100000000000000000000000000000000000000000000000000000000600052602160045260246000fd5b7fce5a9b86edd3b998c3948a7934c7ecf7dba73c4c5bcf56cf576bca4aa2beeb303388884289898960405161064e9796959493929190610c52565b60405180910390a2505050505050565b6000600254905090565b60008054906101000a900473ffffffffffffffffffffffffffffffffffffffff1681565b600160009054906101000a900473ffffffffffffffffffffffffffffffffffffffff1681565b6000816040516020016106c59190610bda565b604051602081830303815290604052805190602001209050919050565b6000806000806106f185610757565b809350819450829550505050600186848484604051600081526020016040526040516107209493929190610d00565b6020604051602081039080840390855afa158015610742573d6000803e3d6000fd5b50505060206040510351935050505092915050565b6000806000604184511461076a57600080fd5b60008060006020870151925060408701519150606087015160001a90508083839550955095505050509193909250565b6000813590506107a981610f75565b92915050565b60008083601f8401126107c157600080fd5b8235905067ffffffffffffffff8111156107da57600080fd5b6020830191508360018202830111156107f257600080fd5b9250929050565b60008135905061080881610f8c565b92915050565b60008151905061081d81610f8c565b92915050565b60008060008060008060a0878903121561083c57600080fd5b600061084a89828a0161079a565b965050602061085b89828a0161079a565b955050604061086c89828a016107f9565b945050606061087d89828a016107f9565b935050608087013567ffffffffffffffff81111561089a57600080fd5b6108a689828a016107af565b92509250509295509295509295565b600080604083850312156108c857600080fd5b60006108d68582860161079a565b92505060206108e7858286016107f9565b9150509250929050565b60008060008060006080868803121561090957600080fd5b60006109178882890161079a565b9550506020610928888289016107f9565b9450506040610939888289016107f9565b935050606086013567ffffffffffffffff81111561095657600080fd5b610962888289016107af565b92509250509295509295909350565b60006020828403121561098357600080fd5b60006109918482850161080e565b91505092915050565b6109a381610e5e565b82525050565b6109ba6109b582610e5e565b610ef0565b82525050565b6109c981610e70565b82525050565b6109d881610e7c565b82525050565b6109ef6109ea82610e7c565b610f02565b82525050565b6000610a018385610ddb565b9350610a0e838584610ee1565b610a1783610f57565b840190509392505050565b610a2b81610ebd565b82525050565b6000610a3e602283610dec565b91507f696e7375666669656e742066756e647320696e2061646d696e206163636f756e60008301527f742e0000000000000000000000000000000000000000000000000000000000006020830152604082019050919050565b6000610aa4601c83610dfd565b91507f19457468657265756d205369676e6564204d6573736167653a0a3332000000006000830152601c82019050919050565b6000610ae4601883610dec565b91507f6f6e6c792061646d696e2063616e2063616c6c207468697300000000000000006000830152602082019050919050565b6000610b24600f83610dec565b91507f77726f6e67207369676e617475726500000000000000000000000000000000006000830152602082019050919050565b610b6081610ea6565b82525050565b610b77610b7282610ea6565b610f1e565b82525050565b610b8681610eb0565b82525050565b6000610b9882876109a9565b601482019150610ba882866109a9565b601482019150610bb88285610b66565b602082019150610bc88284610b66565b60208201915081905095945050505050565b6000610be582610a97565b9150610bf182846109de565b60208201915081905092915050565b6000602082019050610c15600083018461099a565b92915050565b6000606082019050610c30600083018661099a565b610c3d602083018561099a565b610c4a6040830184610b57565b949350505050565b600060c082019050610c67600083018a61099a565b610c74602083018961099a565b610c816040830188610b57565b610c8e6060830187610b57565b610c9b6080830186610b57565b81810360a0830152610cae8184866109f5565b905098975050505050505050565b6000604082019050610cd1600083018561099a565b610cde6020830184610b57565b9392505050565b6000602082019050610cfa60008301846109c0565b92915050565b6000608082019050610d1560008301876109cf565b610d226020830186610b7d565b610d2f60408301856109cf565b610d3c60608301846109cf565b95945050505050565b6000602082019050610d5a6000830184610a22565b92915050565b60006020820190508181036000830152610d7981610a31565b9050919050565b60006020820190508181036000830152610d9981610ad7565b9050919050565b60006020820190508181036000830152610db981610b17565b9050919050565b6000602082019050610dd56000830184610b57565b92915050565b600082825260208201905092915050565b600082825260208201905092915050565b600081905092915050565b6000610e1382610ea6565b9150610e1e83610ea6565b9250827fffffffffffffffffffffffffffffffffffffffffffffffffffffffffffffffff03821115610e5357610e52610f28565b5b828201905092915050565b6000610e6982610e86565b9050919050565b60008115159050919050565b6000819050919050565b600073ffffffffffffffffffffffffffffffffffffffff82169050919050565b6000819050919050565b600060ff82169050919050565b6000610ec882610ecf565b9050919050565b6000610eda82610e86565b9050919050565b82818337600083830152505050565b6000610efb82610f0c565b9050919050565b6000819050919050565b6000610f1782610f68565b9050919050565b6000819050919050565b7f4e487b7100000000000000000000000000000000000000000000000000000000600052601160045260246000fd5b6000601f19601f8301169050919050565b60008160601b9050919050565b610f7e81610e5e565b8114610f8957600080fd5b50565b610f9581610ea6565b8114610fa057600080fd5b5056fea2646970667358221220bc329d08f6ead6f4b913ac2594d381750f28a11a0b551b78fc6b1a6441abc01a64736f6c63430008000033",
  "immutableReferences": {},
  "source": "// SPDX-License-Identifier: UNLICENSED\r\npragma solidity ^0.8.0;\r\n\r\nimport '@openzeppelin/contracts/token/ERC20/IERC20.sol';\r\nimport './IToken.sol';\r\n\r\ncontract BridgeBase {\r\n  address public admin;\r\n  IToken public token;\r\n\r\n  uint private fees;\r\n\r\n  function getFees() view external returns(uint){\r\n    return fees;\r\n  }\r\n\r\n  //TODO: update fees via Bridge logic\r\n\r\n  mapping(address => mapping(uint => bool)) public processedNonces;\r\n\r\n  enum Step { Burn, Mint }\r\n  event Transfer(\r\n    address from,\r\n    address to,\r\n    uint amount,\r\n    uint date,\r\n    uint nonce,\r\n    bytes signature,\r\n    Step indexed step\r\n  );\r\n\r\n  constructor(address _token) {\r\n    admin = msg.sender;\r\n    token = IToken(_token);\r\n    fees = 1;\r\n  }\r\n\r\n  function burn(address to, uint amount, uint nonce, bytes calldata signature) external {\r\n    // require(processedNonces[msg.sender][nonce] == false, 'transfer already processed');\r\n    processedNonces[msg.sender][nonce] = true;\r\n   // token.burn(msg.sender, amount);\r\n    //instead of burning transfer to admin account\r\n    uint AmountwithFees = amount + fees;\r\n\r\n    token.transferFrom(to, address(this), AmountwithFees);\r\n  \r\n    emit Transfer(\r\n      msg.sender,\r\n      to,\r\n      amount,\r\n      block.timestamp,\r\n      nonce,\r\n      signature,\r\n      Step.Burn\r\n    );\r\n  }\r\n\r\n  function mint(\r\n    address from, \r\n    address to, \r\n    uint amount, \r\n    uint nonce,\r\n    bytes calldata signature\r\n  ) external {\r\n    bytes32 message = prefixed(keccak256(abi.encodePacked(\r\n      from, \r\n      to, \r\n      amount,\r\n      nonce\r\n    )));\r\n    require(admin == msg.sender, \"only admin can call this\");\r\n    require(recoverSigner(message, signature) == from , 'wrong signature');\r\n    // require(processedNonces[from][nonce] == false, 'transfer already processed');\r\n\r\n    uint adminBal = token.balanceOf( address(this) );\r\n\r\n    require(  adminBal > amount, \"insuffient funds in admin account.\");\r\n    \r\n    processedNonces[from][nonce] = true;\r\n \r\n    token.transfer(to, amount);\r\n\r\n    // emit Transfer(\r\n    //   from,\r\n    //   to,\r\n    //   amount,\r\n    //   block.timestamp,\r\n    //   nonce,\r\n    //   signature,\r\n    //   Step.Mint\r\n    // );\r\n  }\r\n\r\n  function prefixed(bytes32 hash) internal pure returns (bytes32) {\r\n    return keccak256(abi.encodePacked(\r\n      '\\x19Ethereum Signed Message:\\n32', \r\n      hash\r\n    ));\r\n  }\r\n\r\n  function recoverSigner(bytes32 message, bytes memory sig)\r\n    internal\r\n    pure\r\n    returns (address)\r\n  {\r\n    uint8 v;\r\n    bytes32 r;\r\n    bytes32 s;\r\n  \r\n    (v, r, s) = splitSignature(sig);\r\n  \r\n    return ecrecover(message, v, r, s);\r\n  }\r\n\r\n  function splitSignature(bytes memory sig)\r\n    internal\r\n    pure\r\n    returns (uint8, bytes32, bytes32)\r\n  {\r\n    require(sig.length == 65);\r\n  \r\n    bytes32 r;\r\n    bytes32 s;\r\n    uint8 v;\r\n  \r\n    assembly {\r\n        // first 32 bytes, after the length prefix\r\n        r := mload(add(sig, 32))\r\n        // second 32 bytes\r\n        s := mload(add(sig, 64))\r\n        // final byte (first byte of the next 32 bytes)\r\n        v := byte(0, mload(add(sig, 96)))\r\n    }\r\n  \r\n    return (v, r, s);\r\n  }\r\n}\r\n",
  "sourcePath": "C:\\Users\\Fr\\Music\\EthBSCbridge\\contracts\\BridgeBase.sol",
  "compiler": {
    "name": "solc",
    "version": "0.8.0+commit.c7dfd78e.Emscripten.clang"
  },
  "schemaVersion": "3.4.3",
  "updatedAt": "2021-08-27T10:28:33.861Z",
  "devdoc": {
    "kind": "dev",
    "methods": {},
    "version": 1
  },
  "userdoc": {
    "kind": "user",
    "methods": {},
    "version": 1
  }
}